:020000040800F2
:100000008012002089010008FB0800082F04000866
:10001000F90800088F020008DF090008000000004E
:100020000000000000000000000000005909000866
:100030009102000800000000FD0800085B090008AC
:10004000A3010008A3010008A3010008A301000800
:10005000A3010008A3010008A3010008A3010008F0
:10006000A3010008A3010008A3010008A3010008E0
:10007000A3010008A3010008A3010008A3010008D0
:10008000A3010008A3010008A3010008A3010008C0
:10009000A3010008A3010008A3010008A3010008B0
:1000A000A3010008A3010008A3010008A3010008A0
:1000B000A3010008A3010008A3010008A301000890
:1000C000A3010008A3010008A3010008A301000880
:1000D000A3010008A3010008A3010008A301000870
:1000E000A3010008A3010008A301000800F002F822
:1000F00000F03AF80AA090E8000C82448344AAF188
:100100000107DA4501D100F02FF8AFF2090EBAE885
:100110000F0013F0010F18BFFB1A43F0010318473B
:100120001C0E00003C0E0000103A24BF78C878C1B5
:10013000FAD8520724BF30C830C144BF04680C60ED
:10014000704700000023002400250026103A28BF35
:1001500078C1FBD8520728BF30C148BF0B60704739
:100160001FB51FBD10B510BD00F058F81146FFF7C0
:10017000F7FF00F0EDFD00F076F803B4FFF7F2FFB3
:1001800003BC00F07DF8000009488047094800479B
:10019000FEE7FEE7FEE7FEE7FEE7FEE7FEE7FEE737
:1001A000FEE7FEE704480549054A064B7047000094
:1001B000DD090008ED0000088010002080120020FA
:1001C00080110020801100204FF0000200B513467E
:1001D00094469646203922BFA0E80C50A0E80C5067
:1001E000B1F12001BFF4F7AF090728BFA0E80C5018
:1001F00048BF0CC05DF804EB890028BF40F8042B11
:1002000008BF704748BF20F8022B11F0804F18BF7D
:1002100000F8012B7047704770477047754600F033
:100220002BF8AE4605006946534620F00700854688
:1002300018B020B5FFF7B6FFBDE820404FF000062C
:100240004FF000074FF000084FF0000B21F00701BE
:10025000AC46ACE8C009ACE8C009ACE8C009ACE801
:10026000C0098D46704710B50446AFF300802046A4
:10027000BDE81040FFF781BF004870471C10002008
:1002800001491820ABBEFEE7260002007047FEE7DA
:10029000704710B500F09AF8342000F003F840F2EF
:1002A000FF1010BD10B5044634F0350000D124B95C
:1002B0004FF4B661024800F0E9FC0248C46010BD8A
:1002C000CC0E00080020024070B505460E46002402
:1002D00005EB842000F006F8641C05EB8420B04296
:1002E000F6D370BD70B505461149A5F1006088428E
:1002F00004D340F2A1110F4800F0C8FC4FF430269F
:10030000304600F06FF8042811D10B4C206940F002
:10031000020020616561206940F0400020613046A4
:1003200000F060F8216941F6FD721140216170BD55
:10033000FFFF0F00CC0E00080020024004200849F7
:10034000CA68D20701D001207047CA68520701D598
:1003500002207047C968C906FBD50320704700001A
:10036000002002400248016941F0800101617047AC
:1003700000200240FFF7F6BF2DE9F04105460E468A
:100380000F49A5F10060884204D34FF456710D481F
:1003900000F07CFC4FF40057384600F023F80428A6
:1003A0000CD1094C206940F0010020612E803846B4
:1003B00000F018F82169BA1E11402161BDE8F081F2
:1003C000FFFF0F00CC0E0008002002400348024946
:1003D00041600349416070472301674500200240A6
:1003E000AB89EFCD00B50346FFF7A8FF02E0FFF7AA
:1003F000A5FF5B1E012801D1002BF8D1002B00D1F5
:10040000052000BD2DE9F04105460E461F4604209B
:10041000002408E02919285D497840EA01213019B3
:10042000FFF7AAFFA41CBC42F4DBBDE8F081FEE7A5
:1004300008B504494A6902434A614969014000918B
:1004400008BD00000010024008B50449CA69024313
:10045000CA61C9690140009108BD00000010024056
:1004600008B504498A6902438A618969014000919B
:1004700008BD0000001002402DE9F04707460C4679
:100480005C4887420FD05C4887420CD05B4887426B
:1004900009D05B48874206D05A48874203D0A3213F
:1004A00059A000F0F3FB206830F07B4102D010F03F
:1004B0007B4F03D0A42154A000F0E8FB2068C0F3D8
:1004C0000F2999FAA9F0B0FA80F58DE00120A84033
:1004D00010EA090F7DD0082D03D240F20116AE407C
:1004E00006E0A5F108004FF00111814041F080665F
:1004F0006068082813D1206928B1012803D0BF21E2
:1005000041A000F0C3FB2069F968320A92FAA2F216
:10051000B2FA82F221EA162190400143F960606844
:1005200058B1042809D0082807D0012805D0092887
:1005300003D0C62134A000F0A9FB606807EB166861
:1005400096FAA6F2B2FA82F293000F22D8F80010BF
:100550009A40914396FAA6F2B2FA82F29200904043
:100560000143C8F800106068012801D009283AD179
:10057000A068022807D0012805D0032803D0CE2187
:1005800021A000F083FBE06828B1042803D0CF212C
:100590001DA000F07BFBA16896FAA6F2B2FA82F2E7
:1005A00093000322D8F800009A40904396FAA6F2EE
:1005B000B2FA82F2920091400843C8F80000E16864
:1005C00096FAA6F2B2FA82F2930004229A4090437D
:1005D00000E008E096FAA6F2B2FA82F292009140A8
:1005E0000843C8F800006D1C39FA05F07FF46EAFBF
:1005F000BDE8F08700080140000C014000100140F8
:1006000000140140001801402E2E2F4472697665B7
:1006100072732F53544D3332463178785F48414CD2
:100620005F4472697665722F5372632F73746D33F2
:1006300032663178785F6C6C5F6770696F2E63002B
:100640004FF47A71B0FBF1F14FF0E020491E4161A7
:100650000021816105210161704700002DE9F04111
:1006600005460C4601264F48854206D04E48854235
:1006700003D0B7214DA000F009FB206860B1B0F5B0
:10068000806F09D0B0F5004F06D0B0F5404F03D0D1
:10069000BA2146A000F0FAFA6068B0F5827F04D073
:1006A00018B1BB2141A000F0F1FAA06830B1B0F55B
:1006B000006F03D0BC213DA000F0E8FAE06828B14B
:1006C000022803D0BD2139A000F0E0FA206928B14A
:1006D000012803D0BE2135A000F0D8FA6069B0F53A
:1006E000007F07D030B1B0F5802F03D0BF212FA0FD
:1006F00000F0CCFAA06988B108280FD010280DD0DE
:1007000018280BD0202809D0282807D0302805D059
:10071000382803D0C02125A000F0B8FAE06980286D
:1007200004D018B1C12121A000F0B0FA206A4FF422
:100730000057B84204D018B1C2211CA000F0A6FA9C
:100740002868C0F3801050BBD4E900010843D4E905
:100750000212114308432169084361690843A169F2
:100760000843E1690843216A084329684FF6BF72CC
:100770009143084328606868616920F0040040EAFA
:1007800011406860206AB84208D1606A18B9E52152
:1007900006A000F07BFAA08C80B2286100263046CB
:1007A000BDE8F08100300140003800402E2E2F447B
:1007B0007269766572732F53544D333246317878AF
:1007C0005F48414C5F4472697665722F5372632FA4
:1007D00073746D3332663178785F6C6C5F737069F7
:1007E0002E630000014908607047000018000020D7
:1007F00008B54FF0E0210A690092421C05D0401C68
:1008000003E00A69D20300D5401E0028F9D108BDD3
:1008100070B586B0142101A8FFF7D6FC0420FFF7BD
:100820001FFE0820FFF71CFE0E4E0F4C4FF48051A8
:10083000616146F260010191092102910320039058
:100840000025049501A90948FFF716FE019601202D
:10085000029002200390049501A92046FFF70CFEA8
:1008600006B070BD10001004000C014000080140EB
:1008700030B58FB0282105A8FFF7A6FC14216846E3
:10088000FFF7A2FC4FF48040FFF7DEFD0820FFF7E2
:10089000E7FD1548009009200190032002900024F4
:1008A0000394124D69462846FFF7E6FD1049009172
:1008B0000421019169462846FFF7DEFD05944FF4B7
:1008C0008270069007940894099468150A9028206D
:1008D0000B900C940D940A200E9005A90548FFF783
:1008E000BDFE0FB030BD0000A000A004000C014010
:1008F0004000400400380040FEE7FEE7704700007B
:1009000030B5134C20734FF0FF30124B4FF47A7513
:1009100005E05A88521C92B25A80AA4217D2A268A5
:10092000C2F34002002AF4D0227B0A7000225A80CF
:1009300005E05A88521C92B25A80AA4207D2A26895
:10094000C2F30002002AF4D0207B0870002030BDE2
:1009500000380040000000207047704710B51C4868
:10096000016821F007010160016801F00701002919
:10097000FAD11848016821F0F80141F080010160C6
:10098000016841F0010101600168C1F340010029E3
:10099000FAD0416821F0F0014160416821F4E06142
:1009A0004160416821F460514160416821F00301D8
:1009B0004160416801F00C010029FAD1064C204643
:1009C000FFF73EFE2046BDE81040FFF70BBF0000DA
:1009D000002002400010024000127A007047FEE73B
:1009E000F0B507460024601E214D4FF47A764B2B5C
:1009F00001D09F2B0AD12B7303E0641CA4B2B44234
:100A000035D2AB68C3F34003002BF6D0002420E0BE
:100A100000232B7303E05B1C9BB2B34227D2D5F8B3
:100A200008C0CCF3400CBCF1000FF4D0002303E06D
:100A30005B1C9BB2B3421AD2D5F808C0CCF3000CB1
:100A4000BCF1000FF4D02B7B02EB040C07F80C3048
:100A5000641C8C42DCD3002103E0491C89B2B14202
:100A600005D2AA68C2F3C012002AF6D10020F0BD58
:100A7000003800402DE9F84F8046894693469A4653
:100A800000200090284E4FF480557561694640461D
:100A9000FFF736FF401C4FF0FF3713D0BBF1000FBC
:100AA0000CDB0324E0004BFA00F0C0B26946FFF70C
:100AB00027FF401C0AD0641E002CF3DCB8F10B0F9A
:100AC00007D010E035613846BDE8F88F356138460B
:100AD000FAE7012469460020FFF712FF401C0ED000
:100AE000641E002CF6DCBAF1010F0ED943465146C4
:100AF00048460A9AFFF774FF401C03D00DE03561A9
:100B00003846E1E735613846DEE706D199F800005E
:100B10006946FFF7F5FE401C03D035619DF80000E3
:100B2000D2E735613846CFE7000C014010B50A4CDA
:100B3000012020700949000308610120FFF758FED9
:100B400000F00EF8401C4FF0000102D0217001208F
:100B500010BD2170002010BD00000020000C0140DD
:100B6000F8B54FF0FF34104D002617E0401C286107
:100B7000042322460D499F200096FFF77BFFE86083
:100B8000401C08D00948017842780904807841EA7D
:100B90000224044305E00120FFF72AFE28690A2801
:100BA000E4DB2046F8BD0000000000201C0000200F
:100BB0002DE9F8430746884616461C46104D02E0CC
:100BC0000120FFF715FE2B78012BF9D001202870AA
:100BD0000202944200D804B914463019904201D957
:100BE000C6F5807400F03CF806EB08220026A3B29C
:100BF00039460B200096FFF73DFF2E70BDE8F883C5
:100C0000000000202DE9F04107464FF48050834258
:100C100000D803B9034682421CD2D418844202D9B8
:100C2000C2F5805400E01C46084600F015F800EBC1
:100C30001225D6B24FF480784346324629463846CC
:100C4000FFF7B6FF6D1CC6F58070241A0744002616
:100C5000002CF1DCBDE8F0810003000A70470000C1
:100C600078B500256E1E0024641C01233246064917
:100C700005200095FFF7FEFE411C01D10A2CF3DB95
:100C8000C007F0D178BD00001C00002070470000B4
:100C90004FF0006210682A4900F580500840B0F11A
:100CA000005F4BD14FF0E0204FF0FF31C0F88011D2
:100CB000C0F88411C0F88811C0F88C11C0F89011E8
:100CC000C0F89411C0F89811C0F89C11C0F88012B7
:100CD000C0F88412C0F88812C0F88C12C0F89012C4
:100CE000C0F89412C0F89812C0F89C12002101615B
:100CF000416181611348016841F000710160114850
:100D00002030016821F4E0210160EFF314808007B6
:100D100005D5EFF3148020F0020080F31488094910
:100D20004FF48050091D0860106800F5805080F372
:100D30000888054805494068486100477047000039
:100D40000000FE2F04ED00E000100008000000206D
:100D50000120FFF785FB4FF08050FFF775FB5148EE
:100D600001684FF6FF0211404F4A41F440711143B0
:100D700001600068C0F30220C0F10701042900D916
:100D80000421021D072A01D2002000E0C01E01221A
:100D90008A40521E82404349100117310870FFF704
:100DA000DDFDFFF735FDFFF763FD4048016841F0C9
:100DB00040010160FFF7BAFE01286FD10302002253
:100DC00001213B48FFF71EFF3949DFF8E8808031F9
:100DD000C86FC8F80800401C60D0886FC8F80400CD
:100DE000C0B3411C5AD0070B000500D07F1CBF1CAC
:100DF0004020FFF71DFB304DA86840F00100A860BF
:100E00000224DFF8AC904FF4806B0EE04FF4805377
:100E1000002239462648FFF7F5FE002019F8001099
:100E20002960401C5845F9D3641CBC42EED32868A5
:100E300022494A6922F040024A61D8F808108842E3
:100E40002CD1FFF726FA1F4D1D492846FFF73CFA23
:100E500002261FE022E04FF4805300223946144856
:100E6000FFF7D0FE0024DFF860A009EB84225B4688
:100E700029460F48FFF7C6FA05F58065D8F8041033
:100E800005EB0A00884201D37E1C02E0641C042C9E
:100E9000EBDB761CBE42DED3FFF76CFAFFF7F8FE01
:100EA000FEE700000CED00E00000FA05003800400D
:100EB0001C00002000000020003002400010024012
:100EC0000000010800100008001000F8433A2F55F8
:100ED000736572732F6D616E5F652F417070446131
:100EE00074612F4C6F63616C2F41726D2F50616381
:100EF0006B732F4B65696C2F53544D3332463178E9
:100F0000785F4446502F322E342E302F4465766958
:100F100063652F5374645065726970685F447269C9
:100F20007665722F7372632F73746D33326631304E
:100F3000785F666C6173682E630000005C0F0008C8
:100F4000000000201C00000028010008780F0008A5
:100F50001C00002064120000440100080000000092
:100F60000000000000000000000000000000000081
:080F7000000000000024F40061
:04000005080000ED02
:00000001FF
