:020000040800F2
:10000000801C0020F10D0008F90D0008FB0D000810
:10001000FD0D0008FF0D0008010E000800000000A3
:10002000000000000000000000000000030E0008B7
:10003000050E000800000000070E0008090E000869
:100040000B0E00080B0E00080B0E00080B0E00082C
:100050000B0E00080B0E00080B0E00080B0E00081C
:100060000B0E00080B0E00080B0E00080B0E00080C
:100070000B0E00080B0E00080B0E00080B0E0008FC
:100080000B0E00080B0E00080B0E00080B0E0008EC
:100090000B0E00080B0E00080B0E00080B0E0008DC
:1000A0000B0E00080B0E00080B0E00080B0E0008CC
:1000B0000B0E00080B0E00080B0E00080B0E0008BC
:1000C0000B0E00080B0E00080B0E00080B0E0008AC
:1000D0000B0E00080B0E00080B0E00080B0E00089C
:1000E0000B0E00080B0E00080B0E000800F002F8C3
:1000F00000F03AF80AA090E8000C82448344AAF188
:100100000107DA4501D100F02FF8AFF2090EBAE885
:100110000F0013F0010F18BFFB1A43F0010318473B
:100120006C0F00008C0F0000103A24BF78C878C113
:10013000FAD8520724BF30C830C144BF04680C60ED
:10014000704700000023002400250026103A28BF35
:1001500078C1FBD8520728BF30C148BF0B60704739
:100160001FB51FBD10B510BD00F055FF1146FFF7BC
:10017000F7FF00F071F800F073FF03B4FFF7F2FF30
:1001800003BC00F07BFF000010B5664800686649BC
:100190000840B0F1005F5ED14FF0FF306349086066
:1001A000014662488038C0F88410C0F88810C0F852
:1001B0008C10C0F89010C0F89410C0F89810C0F8D7
:1001C0009C1040174FF0E021C1F8800201465848CA
:1001D0000160001D0160001D0160001D0160001D27
:1001E0000160001D0160001D016000204FF0E02152
:1001F0000861486188614F48006840F000704D49CF
:1002000008604C482030006820F4E0204949203143
:10021000086000BFEFF3148000F0020050B100BF8F
:10022000EFF3148121F0020080F31488BFF36F8F85
:1002300000BF00BF4FF48051C80300F064F9394992
:10024000086880F3088800BF084640683A4908609B
:1002500008460068804710BD00F003F90122042120
:10026000364800F0F3F801220521344800F0EEF89A
:1002700057E0334800F0E0F804463148401E00F0F3
:10028000DBF844EA00202F4908802F4800F0D4F81A
:1002900004462D48401E00F0CFF844EA00202B49C8
:1002A0000880284800880988884210D02648C01E47
:1002B00000F0C2F83F280AD100F052F800F059F8D7
:1002C000234A2449174800F092F800F085F9FFF717
:1002D0005BFF25E000202049086004E01E4800681C
:1002E000401C1D4908601C4800681C498842F5D321
:1002F000052012498968C14001F00101CC43224622
:1003000005210E4800F0A2F804200C498968C1407C
:1003100001F00101CC4322460421084800F096F880
:10032000D8E7A6E7001000080000FE2F80E100E0FB
:1003300084E200E004ED00E0000000200010014035
:10034000FF06010808000020FFFE01080A00002047
:10035000FFFF01080008010804000020FFFF0F0054
:1003600010B500F026F9342000F0BEFB40F2FF107B
:1003700010BD10B5002400BF314901EB842000F00E
:100380005DF9641C2E4800EB84202E498842F3DB83
:1003900010BD2DE9F0410546884616460427002485
:1003A0000CE0294A135D9446621C1CF8022043EAC3
:1003B0000221281900F045FA0746A41CB442F0DBDC
:1003C0003846BDE8F0810146FF2008787047F0B557
:1003D00005460E461746002306E0E818FFF7F3FF30
:1003E0000446F454581C83B2BB42F6DBF0BD2DE941
:1003F000F04705460C461646301B401CC0F38F29BB
:10040000A2462F464FF0000800BF11E04FF4806273
:100410000D495046FFF7DBFF4FF480620A4938462A
:10042000FFF7B7FF07F5806708F101001FFA80F8B2
:10043000C845EBDBBDE8F0870146FF200878704730
:1004400000100008FF0701082000002002F001034F
:100450001BB901238B40436102E001238B40036100
:10046000704710B50323002205210A4800F029FC3B
:10047000032300220421074800F023FC0022052169
:100480000448FFF7E3FF002204210248FFF7DEFFE4
:1004900010BD00000010014031490143314A116094
:1004A000704770B5002100230F22C47804B32D4C8F
:1004B000246804F4E064C4F5E064210AC1F1040393
:1004C000CA40447804FA03F18478144021430901B6
:1004D000254C0678A155047804F01F050124AC4092
:1004E00005786D11AD0005F1E025C5F8004109E082
:1004F000047804F01F050124AC401C4D06787611E9
:1005000045F8264070BD1A4A0A400243154B1B1F8E
:100510001A60704739B1134A121D12680243114B19
:100520001B1D1A6006E00F4A121D126882430D4B14
:100530001B1D1A607047042808D14FF0E02109699B
:1005400041F004014FF0E022116107E04FF0E0219B
:10055000096921F004014FF0E022116170470000A9
:100560000000FA050CED00E000E400E080E100E0AE
:1005700080FFFF1F01460020FE4A106800F038008F
:10058000084310607047FB49096821F00801F94AE7
:10059000116011460968014311607047F549096807
:1005A00021F01001F34A11601146096801431160FE
:1005B0007047F148EF494860F04848607047EE489E
:1005C000EC494860ED4848607047EA48006940F0EF
:1005D0008000E84908617047E648006940F0800003
:1005E000E449086170470420E249C96801F001014B
:1005F00009B101200EE0DF49C96801F0040109B129
:10060000022007E0DB49C96801F0100109B10320AD
:1006100000E00420704700B502460423FFF7E3FF23
:10062000034603E0FFF7DFFF0346521E012B01D113
:10063000002AF7D102B90523184600BD30B504469B
:1006400004254FF43020FFF7E6FF0546042D17D1AF
:10065000C848006940F00200C64908610846446184
:10066000006940F0400008614FF43020FFF7D3FFED
:100670000546C048006941F6FD710840BD49086162
:10068000284630BD10B504244FF43020FFF7C3FFD7
:100690000446042C16D1B748006940F00400B5495F
:1006A00008610846006940F0400008614FF43020BE
:1006B000FFF7B1FF0446AF48006941F6FB710840FF
:1006C000AC490861204610BD00B502460423FFF77F
:1006D0008AFF034603E0FFF786FF0346521E012B05
:1006E00001D1002AF7D102B90523184600BD10B583
:1006F00004244FF43020FFF7E7FF0446042C16D102
:100700009C48006940F004009A4908610846006965
:1007100040F0400008614FF43020FFF7D5FF044659
:100720009448006941F6FB710840924908612046EF
:1007300010BD00208F49C96901F0020109B10120F3
:1007400000E00020704730B5A5250424FFF7F1FF35
:1007500000B100254FF43020FFF75DFF0446042C64
:100760003AD1854883498860844888600846006992
:1007700040F0200008610846006940F04000086130
:100780004FF43020FFF747FF0446042C1BD1794873
:10079000006941F6DF710840764908610846006942
:1007A00040F01000086176480580E002FFF733FF53
:1007B0000446052C10D06F48006941F6EF710840DF
:1007C0006C49086108E0052C06D06A48006941F6CA
:1007D000EF71084067490861204630BD78B506468C
:1007E0000C46042500200090E802FFF714FF0546A0
:1007F000042D24D15F48006940F001005D49086183
:100800003480E802FFF707FF0546042D10D1B01C25
:100810000090200C00990880E802FFF7FCFE0546D6
:100820005448006941F6FE7108405249086106E0EB
:100830005048006941F6FE7108404E49086128465B
:1008400078BD70B504460D460426F002FFF7E3FEBE
:100850000646042E11D14748006940F00100454981
:1008600008612580F002FFF7D6FE06464148006980
:1008700041F6FE7108403F490861304670BD70B5D1
:1008800005460E460424E002FFF7C5FE0446042C8C
:1008900017D1394837498860384888600846006968
:1008A00040F0100008612E80E002FFF7B4FE04461D
:1008B000052C06D02F48006941F6EF7108402D49FC
:1008C0000861204670BD2DE9F04304464FF6FF76DF
:1008D0003746B046B1460425E443E6B2C4F30727E1
:1008E000C4F307484FEA1469E802FFF794FE05468F
:1008F000042D49D120481F49886020488860084657
:10090000006940F010000861FF2E06D01C48083036
:100910000680E802FFF77FFE0546042D08D1FF2F71
:1009200006D017480A300780E802FFF774FE054634
:10093000042D0AD1B8F1FF0F07D011480C30A0F8F0
:100940000080E802FFF767FE0546042D0AD1B9F1E1
:10095000FF0F07D00A480E30A0F80090E802FFF71A
:100960005AFE0546052D0FD00248006941F6EF7189
:10097000084007E00020024023016745AB89EFCD26
:1009800000F8FF1F664908612846BDE8F08330B5CE
:10099000054604244FF43020FFF73DFE0446042CA6
:1009A00041D160485E4988605F48886008460069B8
:1009B00040F0200008610846006940F040000861EE
:1009C0004FF43020FFF727FE0446042C22D1544870
:1009D000006941F6DF710840514908610846006925
:1009E00040F0100008611DB100205049088002E06D
:1009F000A5204E4908804FF43020FFF70CFE044636
:100A0000052C10D04648006941F6EF710840444972
:100A1000086108E0052C06D04148006941F6DF7105
:100A200008403F490861204630BDF0B505460E46F6
:100A3000174604243B483A4988603B488860E002F6
:100A4000FFF7E9FD0446042C19D13548006940F050
:100A500010003349086147F0F80030432843334918
:100A6000891C0880E002FFF7D6FD0446052C06D05D
:100A70002B48006941F6EF7108402949086120467A
:100A8000F0BD2748C069800870472548006A704754
:100A900000202349096801F0200109B1012000E08C
:100AA0000020704729B11E4A126902431C4B1A618B
:100AB00004E01B4A12698243194B1A6170470146D0
:100AC0000020012908D1164AD26902F001020AB1B8
:100AD000012008E0002006E0114AD2680A400AB16D
:100AE000012000E0002070470D49C86070470420D5
:100AF0000B49C96801F0010109B101200EE0084964
:100B0000C96801F0040109B1022007E00449C9687D
:100B100001F0100109B1032000E00420704700003B
:100B20000020024023016745AB89EFCD00F8FF1F8D
:100B3000002945D0A54A904206D1A54A926942F0C3
:100B40000402A34B9A6180E0A24A904206D1A04AD7
:100B5000926942F008029E4B9A6176E09E4A90426A
:100B600006D19B4A926942F01002994B9A616CE05F
:100B70009A4A904206D1964A926942F02002944BDA
:100B80009A6162E0964A904206D1914A926942F097
:100B900040028F4B9A6158E0924A904206D18C4AAB
:100BA000926942F080028A4B9A614EE08E4A9042EE
:100BB0004BD1874A926942F48072854B9A6144E036
:100BC000824A904206D1824A926922F00402804B06
:100BD0009A613AE07F4A904206D17D4A926922F0BA
:100BE00008027B4B9A6130E07B4A904206D1784AFA
:100BF000926922F01002764B9A6126E0774A904281
:100C000006D1734A926922F02002714B9A611CE06E
:100C1000734A904206D16E4A926922F040026C4BB0
:100C20009A6112E06F4A904206D1694A926922F0B5
:100C30008002674B9A6108E06B4A904205D1644A92
:100C4000926922F48072624B9A61704701465F4854
:100C5000814204D15E488069C0F3800070475D48DE
:100C6000814204D15A488069C0F3C000F6E75A486F
:100C7000814204D156488069C0F30010EEE757481E
:100C8000814204D152488069C0F34010E6E75448DD
:100C9000814204D14E488069C0F38010DEE751489C
:100CA000814204D14A488069C0F3C010D6E74E485B
:100CB000814204D146488069C0F30020CEE700207D
:100CC000CCE72DE9F04105460C46174698460F2C17
:100CD00002D90020BDE8F0812846FFF7B7FF18B918
:100CE00001212846FFF724FFB8F1000F10D1022F91
:100CF00005D1E8680121A1408843E86008E0032F9E
:100D000006D127F00107E8680121A1400843E86007
:100D1000082C01D22E4601E0083C2E1D3068A200AE
:100D20000F2191408843306048EA8700A100884045
:100D30003168084330600120CCE718B5002844D062
:100D4000C0F34211C0F30322214B9B6903F001035E
:100D50002BB91F4B9B6943F001031D4CA36100F4A9
:100D60008053A3B1214BDB69009300F01F0301FA0C
:100D700003F3009C9C43009400F01F0302FA03F36A
:100D8000009C23430093194C009BE3611DE0174B2B
:100D90005B68009300F01F0301FA03F3009C9C437F
:100DA000009400F01F0302FA03F3009C2343009316
:100DB00007210022009B23EA01630093009B43EA82
:100DC00002630093094C009B636018BD000801405A
:100DD00000100240000C01400010014000140140CE
:100DE00000180140001C01400020014000000140AB
:100DF0000948804709480047FEE7FEE7FEE7FEE7AF
:100E0000FEE7FEE7FEE7FEE7FEE7FEE704480549EA
:100E1000054A064B704700000F0F0008ED00000860
:100E200080040020801C0020800C0020800C00200A
:100E30000CB50020019000906C48006840F48030B0
:100E40006A49086000BF6948006800F400300090FB
:100E50000198401C0190009818B90198B0F5A06F56
:100E6000F1D16248006800F4003010B10120009018
:100E700001E0002000900098012843D15C48006800
:100E800040F010005A4908600846006820F007004A
:100E900008600846006840F0010008605348406858
:100EA000524948600846406848600846406840F437
:100EB000806048600846406820F47C10486008461E
:100EC000406840F4881048600846006840F0807030
:100ED000086000BF4548006800F000700028F9D0A5
:100EE0004248406820F00300404948600846406896
:100EF00040F00200486000BF3C48406800F00C0031
:100F00000828F9D10CBD10B5FFF792FF10BD10B540
:100F10003648006840F001003449086008464068DF
:100F20003449084031494860084600683249084061
:100F30002E4908600846006820F4802008600846B2
:100F4000406820F4FE0048604FF41F008860FFF7FF
:100F5000DAFF4FF000602949086010BD10B500218C
:100F600000200022214B5B6803F00C0121B1042911
:100F700006D0082928D107E0214B224C236027E026
:100F80001F4B204C236023E0184B5B6803F4701068
:100F9000164B5B6803F48032022303EB904022B9C6
:100FA000194B4343174C23600DE0104B5B6803F46F
:100FB000003323B1144B4343124C236003E0104B26
:100FC0004343104C236003E00D4B0E4C236000BFE5
:100FD00000BF064B5B68C3F303130C4CE15C094B89
:100FE0001B68CB40074C236010BD0000001002407E
:100FF000002002400000FFF8FFFFF6FE08ED00E0D1
:1010000000127A000C00002000093D0010000020B2
:10101000704770477047754600F02CF8AE460500E3
:101020006946534620F00700854618B020B5FFF703
:10103000EDFEBDE820404FF000064FF000074FF0F6
:1010400000084FF0000B21F00701AC46ACE8C009E6
:10105000ACE8C009ACE8C009ACE8C0098D467047EF
:1010600010B50446AFF300802046BDE81040FFF7FE
:1010700084B800000048704720040020014918206F
:10108000ABBEFEE72600020070470000AC1000086F
:10109000000000202000000028010008CC100008FB
:1010A00020000020601C0000440100080000000037
:1010B0000000000000000000006CDC0200000000E6
:0C10C000000000000102030406070809FC
:04000005080000ED02
:00000001FF
